{
  "abi": [
    {
      "type": "constructor",
      "inputs": [],
      "stateMutability": "nonpayable"
    },
    {
      "type": "function",
      "name": "OWNER",
      "inputs": [],
      "outputs": [
        {
          "name": "",
          "type": "address",
          "internalType": "address"
        }
      ],
      "stateMutability": "view"
    },
    {
      "type": "function",
      "name": "claimUnicefCoins",
      "inputs": [],
      "outputs": [],
      "stateMutability": "nonpayable"
    },
    {
      "type": "function",
      "name": "donate",
      "inputs": [],
      "outputs": [],
      "stateMutability": "payable"
    },
    {
      "type": "function",
      "name": "donatorTokenBalance",
      "inputs": [],
      "outputs": [
        {
          "name": "",
          "type": "uint256",
          "internalType": "uint256"
        }
      ],
      "stateMutability": "view"
    },
    {
      "type": "function",
      "name": "owner",
      "inputs": [],
      "outputs": [
        {
          "name": "",
          "type": "address",
          "internalType": "address"
        }
      ],
      "stateMutability": "view"
    },
    {
      "type": "function",
      "name": "renounceOwnership",
      "inputs": [],
      "outputs": [],
      "stateMutability": "nonpayable"
    },
    {
      "type": "function",
      "name": "transferOwnership",
      "inputs": [
        {
          "name": "newOwner",
          "type": "address",
          "internalType": "address"
        }
      ],
      "outputs": [],
      "stateMutability": "nonpayable"
    },
    {
      "type": "function",
      "name": "unitoken",
      "inputs": [],
      "outputs": [
        {
          "name": "",
          "type": "address",
          "internalType": "contract UnicefCoins"
        }
      ],
      "stateMutability": "view"
    },
    {
      "type": "function",
      "name": "unitokenBalance",
      "inputs": [],
      "outputs": [
        {
          "name": "",
          "type": "uint256",
          "internalType": "uint256"
        }
      ],
      "stateMutability": "view"
    },
    {
      "type": "function",
      "name": "userDonations",
      "inputs": [
        {
          "name": "",
          "type": "address",
          "internalType": "address"
        }
      ],
      "outputs": [
        {
          "name": "",
          "type": "uint256",
          "internalType": "uint256"
        }
      ],
      "stateMutability": "view"
    },
    {
      "type": "function",
      "name": "withdrow",
      "inputs": [],
      "outputs": [],
      "stateMutability": "nonpayable"
    },
    {
      "type": "event",
      "name": "ClaimTokenEvent",
      "inputs": [
        {
          "name": "",
          "type": "address",
          "indexed": false,
          "internalType": "address"
        },
        {
          "name": "",
          "type": "uint256",
          "indexed": false,
          "internalType": "uint256"
        }
      ],
      "anonymous": false
    },
    {
      "type": "event",
      "name": "DonationEvent",
      "inputs": [
        {
          "name": "",
          "type": "address",
          "indexed": false,
          "internalType": "address"
        },
        {
          "name": "",
          "type": "uint256",
          "indexed": false,
          "internalType": "uint256"
        }
      ],
      "anonymous": false
    },
    {
      "type": "event",
      "name": "OwnershipTransferred",
      "inputs": [
        {
          "name": "previousOwner",
          "type": "address",
          "indexed": true,
          "internalType": "address"
        },
        {
          "name": "newOwner",
          "type": "address",
          "indexed": true,
          "internalType": "address"
        }
      ],
      "anonymous": false
    },
    {
      "type": "event",
      "name": "WithdrawEvent",
      "inputs": [
        {
          "name": "",
          "type": "address",
          "indexed": false,
          "internalType": "address"
        },
        {
          "name": "",
          "type": "uint256",
          "indexed": false,
          "internalType": "uint256"
        }
      ],
      "anonymous": false
    },
    {
      "type": "error",
      "name": "OwnableInvalidOwner",
      "inputs": [
        {
          "name": "owner",
          "type": "address",
          "internalType": "address"
        }
      ]
    },
    {
      "type": "error",
      "name": "OwnableUnauthorizedAccount",
      "inputs": [
        {
          "name": "account",
          "type": "address",
          "internalType": "address"
        }
      ]
    }
  ],
  "bytecode": {
    "object": "0x60a060405234801561001057600080fd5b50338061003757604051631e4fbdf760e01b81526000600482015260240160405180910390fd5b610040816100a4565b503060405161004e906100f4565b6001600160a01b039091168152602001604051809103906000f08015801561007a573d6000803e3d6000fd5b50600180546001600160a01b0319166001600160a01b039290921691909117905533608052610101565b600080546001600160a01b038381166001600160a01b0319831681178455604051919092169283917f8be0079c531659141344cd1fd0a4f28419497f9722a3daafe3b4186f6b6457e09190a35050565b610ce08061087e83390190565b60805161075c6101226000396000818160f30152610225015261075c6000f3fe60806040526004361061009c5760003560e01c80638da5cb5b116100645780638da5cb5b1461017b578063bfa700c014610199578063e5acfbce146101ae578063e61a2ba9146101ce578063ed88c68e146101e3578063f2fde38b146101eb57600080fd5b80630aa4991d146100a1578063117803e3146100e15780633b8745211461012d5780636991a42b14610144578063715018a614610166575b600080fd5b3480156100ad57600080fd5b506100ce6100bc3660046106bb565b60026020526000908152604090205481565b6040519081526020015b60405180910390f35b3480156100ed57600080fd5b506101157f000000000000000000000000000000000000000000000000000000000000000081565b6040516001600160a01b0390911681526020016100d8565b34801561013957600080fd5b5061014261020b565b005b34801561015057600080fd5b50336000908152600260205260409020546100ce565b34801561017257600080fd5b5061014261030a565b34801561018757600080fd5b506000546001600160a01b0316610115565b3480156101a557600080fd5b506100ce61031e565b3480156101ba57600080fd5b50600154610115906001600160a01b031681565b3480156101da57600080fd5b50610142610395565b6101426105b2565b3480156101f757600080fd5b506101426102063660046106bb565b610600565b61021361063e565b60405147906000906001600160a01b037f0000000000000000000000000000000000000000000000000000000000000000169083908381818185875af1925050503d8060008114610280576040519150601f19603f3d011682016040523d82523d6000602084013e610285565b606091505b50509050806102cc5760405162461bcd60e51b815260206004820152600e60248201526d547820686173206661696c65642160901b60448201526064015b60405180910390fd5b60408051338152602081018490527f5dba113b49cfa7c90315e8e604e6b506f7abcb909b01dcb19ec39005086e68fc91015b60405180910390a15050565b61031261063e565b61031c600061066b565b565b6001546040516370a0823160e01b815233600482015260009182916001600160a01b03909116906370a0823190602401602060405180830381865afa15801561036b573d6000803e3d6000fd5b505050506040513d601f19601f8201168201806040525081019061038f91906106eb565b92915050565b336000908152600260205260409020546103e65760405162461bcd60e51b8152602060048201526012602482015271596f75722062616c616e636520697a20302160701b60448201526064016102c3565b6001546040516370a0823160e01b81523060048201526000916001600160a01b0316906370a0823190602401602060405180830381865afa15801561042f573d6000803e3d6000fd5b505050506040513d601f19601f8201168201806040525081019061045391906106eb565b116104a05760405162461bcd60e51b815260206004820152601e60248201527f5472657375727920556e69546f6b656e2062616c616e6365206973203021000060448201526064016102c3565b33600081815260026020526040808220805490839055600154915163a9059cbb60e01b8152600481019490945260248401819052926001600160a01b039091169063a9059cbb906044016020604051808303816000875af1158015610509573d6000803e3d6000fd5b505050506040513d601f19601f8201168201806040525081019061052d9190610704565b90508061057c5760405162461bcd60e51b815260206004820152601a60248201527f5472616e73666572206f6620746f6b656e73206661696c65642e00000000000060448201526064016102c3565b60408051338152602081018490527f39c061eaeefe46cd63ecffc0d6a09d4bd74f374f905a362ddaedc91083d3e9df91016102fe565b3360008181526002602090815260409182902034908190558251938452908301527f8b7fe5be5699654fd637d2250cb0d47e88205730710745e78e9d8bcaf8aad8f1910160405180910390a1565b61060861063e565b6001600160a01b03811661063257604051631e4fbdf760e01b8152600060048201526024016102c3565b61063b8161066b565b50565b6000546001600160a01b0316331461031c5760405163118cdaa760e01b81523360048201526024016102c3565b600080546001600160a01b038381166001600160a01b0319831681178455604051919092169283917f8be0079c531659141344cd1fd0a4f28419497f9722a3daafe3b4186f6b6457e09190a35050565b6000602082840312156106cd57600080fd5b81356001600160a01b03811681146106e457600080fd5b9392505050565b6000602082840312156106fd57600080fd5b5051919050565b60006020828403121561071657600080fd5b815180151581146106e457600080fdfea26469706673582212201a2bbb0f912135d1bd143804339beef5e344c0f0a02036a3dd457da57bc822fe64736f6c6343000814003360a06040523480156200001157600080fd5b5060405162000ce038038062000ce083398101604081905262000034916200023f565b6040518060400160405280600a8152602001692ab734b1b2b321b7b4b760b11b81525060405180604001604052806003815260200162554e4960e81b815250816003908162000084919062000316565b50600462000093828262000316565b5050506001600160a01b038116608052620000b981694a1d89bb94865ec00000620000ca565b506005805460ff191690556200040a565b6001600160a01b038216620000fa5760405163ec442f0560e01b8152600060048201526024015b60405180910390fd5b62000108600083836200010c565b5050565b6001600160a01b0383166200013b5780600260008282546200012f9190620003e2565b90915550620001af9050565b6001600160a01b03831660009081526020819052604090205481811015620001905760405163391434e360e21b81526001600160a01b03851660048201526024810182905260448101839052606401620000f1565b6001600160a01b03841660009081526020819052604090209082900390555b6001600160a01b038216620001cd57600280548290039055620001ec565b6001600160a01b03821660009081526020819052604090208054820190555b816001600160a01b0316836001600160a01b03167fddf252ad1be2c89b69c2b068fc378daa952ba7f163c4a11628f55a4df523b3ef836040516200023291815260200190565b60405180910390a3505050565b6000602082840312156200025257600080fd5b81516001600160a01b03811681146200026a57600080fd5b9392505050565b634e487b7160e01b600052604160045260246000fd5b600181811c908216806200029c57607f821691505b602082108103620002bd57634e487b7160e01b600052602260045260246000fd5b50919050565b601f8211156200031157600081815260208120601f850160051c81016020861015620002ec5750805b601f850160051c820191505b818110156200030d57828155600101620002f8565b5050505b505050565b81516001600160401b0381111562000332576200033262000271565b6200034a8162000343845462000287565b84620002c3565b602080601f831160018114620003825760008415620003695750858301515b600019600386901b1c1916600185901b1785556200030d565b600085815260208120601f198616915b82811015620003b35788860151825594840194600190910190840162000392565b5085821015620003d25787850151600019600388901b60f8161c191681555b5050505050600190811b01905550565b808201808211156200040457634e487b7160e01b600052601160045260246000fd5b92915050565b6080516108b36200042d6000396000818161012c01526102b801526108b36000f3fe608060405234801561001057600080fd5b50600436106100b45760003560e01c8063313ce56711610071578063313ce5671461016657806370a082311461017557806395d89b411461019e5780639904d988146101a6578063a9059cbb146101b3578063dd62ed3e146101c657600080fd5b806306fdde03146100b9578063095ea7b3146100d757806318160ddd146100fa5780631a69d1621461010c57806323b872dd146101145780632d2c556514610127575b600080fd5b6100c16101ff565b6040516100ce91906106bc565b60405180910390f35b6100ea6100e5366004610726565b610291565b60405190151581526020016100ce565b6002545b6040519081526020016100ce565b6100ea6102ab565b6100ea610122366004610750565b61034e565b61014e7f000000000000000000000000000000000000000000000000000000000000000081565b6040516001600160a01b0390911681526020016100ce565b604051601281526020016100ce565b6100fe61018336600461078c565b6001600160a01b031660009081526020819052604090205490565b6100c1610372565b6005546100ea9060ff1681565b6100ea6101c1366004610726565b610381565b6100fe6101d43660046107ae565b6001600160a01b03918216600090815260016020908152604080832093909416825291909152205490565b60606003805461020e906107e1565b80601f016020809104026020016040519081016040528092919081815260200182805461023a906107e1565b80156102875780601f1061025c57610100808354040283529160200191610287565b820191906000526020600020905b81548152906001019060200180831161026a57829003601f168201915b5050505050905090565b60003361029f8185856103ce565b60019150505b92915050565b6000336001600160a01b037f000000000000000000000000000000000000000000000000000000000000000016146102fd5760405163a5a3ffb960e01b81523360048201526024015b60405180910390fd5b6005805460ff8082161560ff1990921682179092556040519116151581527fd863e61211225d47dec318f0e57cf23d6d79994c52f0c396557398e285f2768d9060200160405180910390a150600190565b60003361035c8582856103e0565b61036785858561045e565b506001949350505050565b60606004805461020e906107e1565b600554600090339060ff1615156001036103c35760006127106103a685612648610831565b6103b09190610848565b90506103bd82868361045e565b5061029f565b61029f81858561045e565b6103db83838360016104bd565b505050565b6001600160a01b038381166000908152600160209081526040808320938616835292905220546000198114610458578181101561044957604051637dc7a0d960e11b81526001600160a01b038416600482015260248101829052604481018390526064016102f4565b610458848484840360006104bd565b50505050565b6001600160a01b03831661048857604051634b637e8f60e11b8152600060048201526024016102f4565b6001600160a01b0382166104b25760405163ec442f0560e01b8152600060048201526024016102f4565b6103db838383610592565b6001600160a01b0384166104e75760405163e602df0560e01b8152600060048201526024016102f4565b6001600160a01b03831661051157604051634a1406b160e11b8152600060048201526024016102f4565b6001600160a01b038085166000908152600160209081526040808320938716835292905220829055801561045857826001600160a01b0316846001600160a01b03167f8c5be1e5ebec7d5bd14f71427d1e84f3dd0314c0f7b2291e5b200ac8c7c3b9258460405161058491815260200190565b60405180910390a350505050565b6001600160a01b0383166105bd5780600260008282546105b2919061086a565b9091555061062f9050565b6001600160a01b038316600090815260208190526040902054818110156106105760405163391434e360e21b81526001600160a01b038516600482015260248101829052604481018390526064016102f4565b6001600160a01b03841660009081526020819052604090209082900390555b6001600160a01b03821661064b5760028054829003905561066a565b6001600160a01b03821660009081526020819052604090208054820190555b816001600160a01b0316836001600160a01b03167fddf252ad1be2c89b69c2b068fc378daa952ba7f163c4a11628f55a4df523b3ef836040516106af91815260200190565b60405180910390a3505050565b600060208083528351808285015260005b818110156106e9578581018301518582016040015282016106cd565b506000604082860101526040601f19601f8301168501019250505092915050565b80356001600160a01b038116811461072157600080fd5b919050565b6000806040838503121561073957600080fd5b6107428361070a565b946020939093013593505050565b60008060006060848603121561076557600080fd5b61076e8461070a565b925061077c6020850161070a565b9150604084013590509250925092565b60006020828403121561079e57600080fd5b6107a78261070a565b9392505050565b600080604083850312156107c157600080fd5b6107ca8361070a565b91506107d86020840161070a565b90509250929050565b600181811c908216806107f557607f821691505b60208210810361081557634e487b7160e01b600052602260045260246000fd5b50919050565b634e487b7160e01b600052601160045260246000fd5b80820281158282048414176102a5576102a561081b565b60008261086557634e487b7160e01b600052601260045260246000fd5b500490565b808201808211156102a5576102a561081b56fea2646970667358221220b9be8495903c5a9182c49558a28b323e6e982fab752e792c01d90b593619246864736f6c63430008140033",
    "linkReferences": {}
  },
  "methodIdentifiers": {
    "OWNER()": "117803e3",
    "claimUnicefCoins()": "e61a2ba9",
    "donate()": "ed88c68e",
    "donatorTokenBalance()": "6991a42b",
    "owner()": "8da5cb5b",
    "renounceOwnership()": "715018a6",
    "transferOwnership(address)": "f2fde38b",
    "unitoken()": "e5acfbce",
    "unitokenBalance()": "bfa700c0",
    "userDonations(address)": "0aa4991d",
    "withdrow()": "3b874521"
  },
  "id": 23
}